:100000000C94DB000C94F7070C94D0070C94A90710
:100010000C9482070C9403010C9403010C945B076D
:100020000C9403010C9403010C941E080C948D088D
:100030000C9403010C9403010C9403010C94030130
:100040000C9403010C9403010C9403010C94030120
:100050000C9403010C9403010C9403010C941107FC
:100060000C9403010C9403010C9403010C94030100
:100070000C9403010C9403010C9403010C940301F0
:100080000C9403010C9403010C9403010C940301E0
:100090000C9403010C9403010C9403010C940301D0
:1000A0000C9403010C9403010C940301080B00024F
:1000B0000202000009040000010202000005240001
:1000C0001001052401010104240206052406000193
:1000D0000705810310004009040100020A00000026
:1000E00007050202400000070583024000000403E8
:1000F000090412010002EF02014041233680000191
:100100000102030141726475696E6F204C4C43001B
:1001100041726475696E6F204C656F6E6172646FB9
:1001200000070605040100080A0B0C0D0900000079
:1001300000240027002A002D0030000000000025C8
:100140000028002B002E00310000000000230026B4
:100150000029002C002F00040404040403040502F9
:100160000202020403020202020606060606060452
:10017000040202020404040802011040804010201E
:10018000408040800802040180402010020110805D
:1001900010204040200000000200090F000003046E
:1001A00001000C0000000000000000000000000042
:1001B00000000000111311241FBECFEFDAE0DEBFF4
:1001C000CDBF14E0A0E0B1E0E2E2FCE202C00590A5
:1001D0000D92A030B107D9F724E0A0E0B4E001C04F
:1001E0001D92A73BB207E1F710E0CBEDD0E004C0D1
:1001F0002197FE010E94EE15CA3DD107C9F70E9462
:10020000BF0A0C940F160C940000FC018091660448
:10021000882311F13FB7F89482E08093E9002091A0
:10022000F200822F90E01816190614F481E090E095
:10023000882339F0289844E6409365044091F10002
:100240004083222339F02091F200211103C02BE6D4
:100250002093E8003FBF08958FEF9FEF08952FB7D9
:10026000F89483E08093E9009091E800892F8072F0
:1002700095FF04C09091F20080E4891B2FBF089580
:1002800080915D0481110DC082E08093590484E067
:1002900080935A0410925C0410925B0481E0809376
:1002A0005D0489E594E0089581508F3008F047C0DF
:1002B000E82FF0E0E25AFE4F0C94EE157B017F012F
:1002C0006D01730177019F019F019F0182018801E8
:1002D0008C01900196019F019A01809180008F7797
:1002E000809380000895809180008F7DF9CF809168
:1002F0008000877FF5CF84B58F7784BD089584B55E
:100300008F7DFBCF809190008F7780939000089530
:10031000809190008F7DF9CF80919000877FF5CFFD
:100320008091C0008F778093C00008958091C000B5
:100330008F7DF9CF8091C200877F8093C20008959E
:10034000CF93DF93282F30E0F901EB56FE4F8491D5
:10035000F901EA58FE4FD491F901E95AFE4FC491D0
:10036000CC23A1F081110E945401EC2FF0E0EE0F9C
:10037000FF1FE75BFE4FA591B491EC91ED2381E067
:1003800090E009F480E0DF91CF91089580E090E063
:10039000FACF1F93CF93DF93282F30E0F901EB566C
:1003A000FE4F8491F901EA58FE4FD491F901E95AC0
:1003B000FE4FC491CC23A9F0162F81110E94540145
:1003C000EC2FF0E0EE0FFF1FE55CFE4FA591B4911E
:1003D0008FB7F894EC91111108C0D095DE23DC930F
:1003E0008FBFDF91CF911F910895DE2BF8CFCF9370
:1003F000DF9390E0FC01EA58FE4F2491895A9E4F0A
:10040000FC0184918823D1F090E0880F991FFC01B2
:10041000E35DFE4FA591B491FC01E55CFE4FC591F3
:10042000D491623071F49FB7F8943C91822F8095FB
:1004300083238C93E8812E2B28839FBFDF91CF915C
:1004400008958FB7F894EC912E2B2C938FBFF6CF95
:100450008251E82FF0E0EF5DFE4FE49190917B0038
:100460008E2F880F880F80729F7D892B80937B0051
:10047000E770E064E0937C0080917A008064809370
:100480007A0080917A0086FDFCCF8091780090916F
:10049000790008953FB7F8948091550490915604DF
:1004A000A0915704B091580426B5A89B05C02F3FD2
:1004B00019F00196A11DB11D3FBFBA2FA92F982F8A
:1004C0008827BC01CD01620F711D811D911D42E085
:1004D000660F771F881F991F4A95D1F708958F924D
:1004E0009F92AF92BF92CF92DF92EF92FF924B0119
:1004F0005C010E944A026B017C010E944A026C1955
:100500007D098E099F09683E734081059105A8F316
:1005100021E0821A9108A108B10888EEC80E83E094
:10052000D81EE11CF11C81149104A104B10429F727
:10053000FF90EF90DF90CF90BF90AF909F908F9003
:1005400008952FB7F89460915104709152048091EE
:100550005304909154042FBF0895089540910E04C0
:1005600050910F0420910C0430910D044217530751
:10057000B4F49091E8009570E1F39091E80092FD59
:1005800019C08093F10080910E0490910F040196A0
:100590008F739927892B19F48EEF8093E80080914F
:1005A0000E0490910F04019690930F0480930E0413
:1005B00081E0089580E00895EF92FF920F931F93DA
:1005C000CF93DF93F82E192FE62E042F81E0860FAC
:1005D000880F0E94AE0283E00E94AE02CF2DD12F81
:1005E000EC0EFD2EF11CCE15DF05B9F007FF13C090
:1005F000FE0184910E94AE02182F80E00E94AE029C
:10060000812321968111EFCFDF91CF911F910F911F
:10061000FF90EF9008958881EDCF81E0F5CFDF92D4
:10062000EF92FF920F931F93CF93DF93D82E8A01FF
:10063000EB017B01E40EF51ECE15DF0559F0D7FE68
:1006400012C0FE0184910E94AE0221968111F4CF66
:100650000FEF1FEFC801DF91CF911F910F91FF9016
:10066000EF90DF9008958881EECF0F931F93CF9383
:10067000DF931F92CDB7DEB782E0898342E450E07A
:100680006CEA70E080E80E940F030E944001DC01E8
:1006900012960D911C910115110589F0D801ED916B
:1006A000FC910280F381E02DBE016F5F7F4FC80196
:1006B000099597FD04C0F80100851185ECCF89816B
:1006C0000F90DF91CF911F910F910895615030F0FD
:1006D0002091F100FC0120830196F8CF289884E650
:1006E0008093650408958F929F92AF92BF92CF92AC
:1006F000DF92EF92FF920F931F93CF93DF936C01E2
:100700007B018A0180910B01882309F45CC08091F0
:100710006604882309F457C08091120480FF05C045
:100720008091E00082608093E000E801B12C8AEFC4
:10073000A82E93E0892E2AE3922E209711F4BB2055
:10074000D9F10E942F0181110AC0AA94AA20D9F1DF
:1007500061E070E080E090E00E946F02EECF8C17C5
:100760001D0611F00CF08C2F9FB7F8948092E900D1
:100770002091E80025FD02C09FBFDFCF282F30E089
:10078000C21BD30BF701815020F041914093F1003F
:10079000FACFE20EF31EBB2021F09092E800B12CBC
:1007A000EBCF8091E80085FDE7CF9092E800BB2475
:1007B000B394209709F3F3CF5D9884E680931104F6
:1007C000101611063CF081E090E0F60193838283DD
:1007D00010E000E0C801DF91CF911F910F91FF90D1
:1007E000EF90DF90CF90BF90AF909F908F90089543
:1007F000CF93DF931F92CDB7DEB76983DC01ED9114
:10080000FC910280F381E02D41E050E0BE016F5F7A
:100810007F4F09950F90DF91CF91089583E08093EA
:10082000E9008091F200882319F08AE38093E800C0
:1008300008950E942F0190E00895CF93DF931F92B7
:10084000CDB7DEB7FC018485958597FD08C02FEFF5
:100850003FEF358724870F90DF91CF910895CE0128
:1008600001960E940501019719F4898190E0F3CF68
:100870008FEF9FEFF0CF0F931F93CF93DF931F92D4
:10088000CDB7DEB78C01FC018485958597FF0BC041
:10089000CE0101960E940501019771F4898190E0D3
:1008A000F80195878487F801848595850F90DF91FD
:1008B000CF911F910F9108958FEF9FEFF1CFFC0122
:1008C0008485958597FD0BC09FB7F89482E080934F
:1008D000E9008091F2009FBF90E0019608959FB7D4
:1008E000F89482E08093E9008091F2009FBF90E04D
:1008F00008950F931F9383E00E94A001019769F46C
:100900000E944A02609308047093090480930A04C9
:1009100090930B041F910F9108950E944A02009139
:1009200008041091090420910A0430910B04DC01A1
:10093000CB01801B910BA20BB30B8C019D01045FBB
:10094000114021093109013D17402105310510F7FA
:100950009093170180931601DDCF0F931F9382E0D0
:100960000E94A001019769F40E944A026093040466
:100970007093050480930604909307041F910F91D0
:1009800008950E944A0200910404109105042091E8
:10099000060430910704DC01CB01801B910BA20BF4
:1009A000B30B8C019D01045F114021093109013D08
:1009B00017402105310510F790932B0180932A01F0
:1009C000DDCF0F931F9381E00E94A001019769F48E
:1009D0000E944A0260930004709301048093020411
:1009E000909303041F910F9108950E944A02009171
:1009F0000004109101042091020430910304DC01F1
:100A0000CB01801B910BA20BB30B8C019D01045FEA
:100A1000114021093109013D17402105310510F729
:100A20009093190180931801DDCFFC010190002003
:100A3000E9F73197AF01481B590BBC0187E694E0F9
:100A40000C9473038F929F92AF92BF920F931F9358
:100A5000CF93DF93CDB7DEB7A1970FB6F894DEBF83
:100A60000FBECDBF19A2423008F44AE08E010F5DDF
:100A70001F4F842E912CB12CA12CA50194010E9412
:100A80006613E62FB901CA01EA30F4F4E05DD8013B
:100A9000EE938D01232B242B252B79F790E080E01A
:100AA000109719F0CD010E941505A1960FB6F89484
:100AB000DEBF0FBECDBFDF91CF911F910F91BF90D1
:100AC000AF909F908F900895E95CE1CF009711F06F
:100AD0000C94150590E080E00895CF93DF930E9479
:100AE0001505EC0189E491E00E9415058C0F9D1F0E
:100AF000DF91CF910895CF92DF92EF92FF92CF9343
:100B0000DF936C01990FEE08FF08F7FE19C06DE244
:100B100087E694E00E94F803EC0166277727CB0173
:100B20006C197D098E099F094AE00E9422058C0FED
:100B30009D1FDF91CF91FF90EF90DF90CF900895B0
:100B40004AE0C701B601DF91CF91FF90EF90DF90AF
:100B5000CF900C942205CF92DF92EF92FF92CF9329
:100B6000DF93C12CD62EC82A0D2C000CEE08FF08EE
:100B700061E087E00E94C901C0E1D0E0D701C60171
:100B80000C2E04C0B695A795979587950A94D2F731
:100B9000682F617089E00E94C90161E088E00E94CD
:100BA000C90160E088E00E94C901219738F760E040
:100BB00087E0DF91CF91FF90EF90DF90CF900C9482
:100BC000C9014F925F926F927F928F929F92AF92E4
:100BD000BF92CF92DF92EF92FF920F931F93CF932A
:100BE0006B017C01742EAC019B010E94D5158823FA
:100BF00099F08CE491E0CF911F910F91FF90EF90CD
:100C0000DF90CF90BF90AF909F908F907F906F902C
:100C10005F904F900C94150546015701E894B7F882
:100C20002FEF3FEF4FE75FE7C501B4010E94D515F5
:100C300081110DC02FEF3FEF4FE75FE7C501B40112
:100C40000E94041418161CF480E591E0D4CF2FEF15
:100C50003FEF4FE75FE4C701B6010E946315181626
:100C60001CF484E591E0C7CF2FEF3FEF4FE75FEC37
:100C7000C701B6010E94041487FDF3CF20E030E0E5
:100C8000A901C701B6010E94041410E000E087FF2B
:100C90000AC06DE287E694E00E94F8038C01F7FA3F
:100CA000F094F7F8F094C0E060E070E080E09FE33B
:100CB0007C1641F020E030E040E251E40E9409144B
:100CC000CF5FF6CFA70196010E9498132B013C013C
:100CD0000E9482144B015C014AE00E9422057C01C3
:100CE000E00EF11ECC23C1F1C501B4010E94B11484
:100CF0009B01AC01C301B2010E9497134B015C013F
:100D00006EE287E694E00E94F803E80EF91EC150F7
:100D100018F120E030E040E251E4C501B4010E9446
:100D200068152B013C010E9482144B01B12CA12CAF
:100D30004AE0C501B4010E942205E80EF91EC50172
:100D4000B4010E94B1149B01AC01C301B2010E9425
:100D500097134B015C01DBCFC701CF911F910F911E
:100D6000FF90EF90DF90CF90BF90AF909F908F90CB
:100D70007F906F905F904F9008950F931F93CF9344
:100D8000DF938C01EB010E9426138883C801019632
:100D90000E9426138983CE01DF91CF911F910F917D
:100DA0000895FF920F931F93CF93DF93EC01F62EDC
:100DB00008811981C8010E942613F81621F06F2DB1
:100DC000C8010E942E13CE01DF91CF911F910F9188
:100DD000FF900895EF92FF920F931F93CF93DF93AD
:100DE00000D0CDB7DEB78C017B019A838983FB01EC
:100DF0006081CE0101960E94D1060F5F1F4F1A83BA
:100E00000983F7016181CE0101960E94D106C701D5
:100E10000F900F90DF91CF911F910F91FF90EF9066
:100E200008951F920F920FB60F9211242F933F93A4
:100E30008F939F93AF93BF938091510490915204ED
:100E4000A0915304B09154043091500423E0230F37
:100E50002D3758F50196A11DB11D209350048093A4
:100E6000510490935204A0935304B093540480917E
:100E7000550490915604A0915704B09158040196DE
:100E8000A11DB11D8093550490935604A09357045F
:100E9000B0935804BF91AF919F918F913F912F9143
:100EA0000F900FBE0F901F90189526E8230F029603
:100EB000A11DB11DD2CF1F920F920FB60F92112418
:100EC0002F933F934F935F936F937F938F939F9352
:100ED000AF93BF93EF93FF93E0911401F09115014D
:100EE0000995FF91EF91BF91AF919F918F917F9164
:100EF0006F915F914F913F912F910F900FBE0F9087
:100F00001F9018951F920F920FB60F9211242F93D6
:100F10003F934F935F936F937F938F939F93AF9381
:100F2000BF93EF93FF93E0911201F09113010995A4
:100F3000FF91EF91BF91AF919F918F917F916F91B1
:100F40005F914F913F912F910F900FBE0F901F9087
:100F500018951F920F920FB60F9211242F933F9363
:100F60004F935F936F937F938F939F93AF93BF93B1
:100F7000EF93FF93E0911001F09111010995FF911A
:100F8000EF91BF91AF919F918F917F916F915F9101
:100F90004F913F912F910F900FBE0F901F9018957A
:100FA0001F920F920FB60F9211242F933F934F93DE
:100FB0005F936F937F938F939F93AF93BF93EF93C1
:100FC000FF93E0910E01F0910F010995FF91EF91D0
:100FD000BF91AF919F918F917F916F915F914F9151
:100FE0003F912F910F900FBE0F901F9018951F9259
:100FF0000F920FB60F9211242F933F934F935F934D
:101000006F937F938F939F93AF93BF93EF93FF93D0
:10101000E0910C01F0910D010995FF91EF91BF91C5
:10102000AF919F918F917F916F915F914F913F9180
:101030002F910F900FBE0F901F9018951F920F9237
:101040000FB60F9211248F939F938091E10090919E
:10105000E100937F9093E10083FF0FC01092E900BD
:1010600091E09093EB001092EC0092E39093ED00EE
:101070001092660498E09093F00082FF22C093E003
:101080009093E9009091F200992319F09AE39093DC
:10109000E80090911104992341F09091110491502E
:1010A00090931104911101C05D9A90916504992368
:1010B00041F090916504915090936504911101C0A5
:1010C000289A84FF18C08091E2008E7E8160809310
:1010D000E2008091E1008F7E8093E1008091120414
:1010E0008E7E8061809312049F918F910F900FBE2E
:1010F0000F901F90189580FFF7CF8091E2008E7EB1
:1011000080618093E2008091E1008E7E8093E10017
:10111000809112048E7E8160E5CF1F920F920FB6F0
:101120000F921124CF92DF92EF92FF920F931F93B1
:101130002F933F934F935F936F937F938F939F93DF
:10114000AF93BF93EF93FF93CF93DF93CDB7DEB70A
:101150006C97DEBFCDBF1092E9008091E80083FF5D
:1011600025C068E0CE0145960E94660382EF809319
:10117000E8008D8987FF39C09091E80090FFFCCF8F
:10118000982F907609F034C19E894F89588D2F8908
:10119000F88C911131C0803861F5809113048093EF
:1011A000F1001092F1008EEF8093E8006C960FB67C
:1011B000F894DEBF0FBECDBFDF91CF91FF91EF91CD
:1011C000BF91AF919F918F917F916F915F914F915F
:1011D0003F912F911F910F91FF90EF90DF90CF9053
:1011E0000F900FBE0F901F9018959EEF9093E80000
:1011F000C7CF1092F100D5CF913059F48111D3CFE0
:101200004130510581F6809113048D7F8093130442
:10121000CACF933049F48111C6CF4130510519F638
:10122000809113048260F2CF953041F48091E80000
:1012300080FFFCCF20682093E300B5CF963009F003
:10124000A9C00B8D1C8D22E01092E90010920F04B2
:1012500010920E04F2122EC010920D0410920C0483
:101260000E9435031F8299E09983FA8291E09E8360
:1012700090EA98879AEF998720910E0430910F0495
:10128000275F3F4F3C832B838D831092E9001092A0
:101290000F0410920E0410930D0400930C0449E007
:1012A00050E0BE016F5F7F4F80E00E940F030E94FD
:1012B000350379CF10930D0400930C040E94400174
:1012C000DC0112960D911C910115110509F451C113
:1012D000D801ED91FC910480F581E02DBE016B5E9B
:1012E0007F4FC8010995009709F03EC1F8010085BC
:1012F0001185EACFF3E0FF120EC08F89882309F42D
:1013000040C0823061F440E860E180E191E00E94F9
:10131000DC02811148CF81E28093EB0047CF81301E
:1013200029F440E86BE084E091E0F1CF833099F755
:101330000E944001DC011296ED90FC908E010F5F3F
:101340001F4F6801E114F10479F0D701ED91FC9190
:101350000680F781E02DB801C7010995080F111D1E
:10136000F701E084F184EECFD8011C92F6010190E0
:101370000020E9F73197BF016C197D0940E0C601F3
:10138000C6CF6EEE70E0FB01449150E080E80E9411
:101390000F0309CF973009F4BECF983021F481E0D4
:1013A0008093F10000CF993009F0FDCE837009F0F1
:1013B000B2CFEFE3F1E081E031E096E32191222327
:1013C00071F08093E9003093EB00DF0111972C91CD
:1013D0002093EC009093ED008F5F873079F78EE7D4
:1013E0008093EA001092EA008F8980936604DBCE36
:1013F0008B8D9C8D1092E90010920F0410920E04B8
:1014000090930D0480930C04898D811192C08E8974
:101410009D89913A49F4813209F07DCF47E050E04F
:1014200064E071E080E0B3CF913209F074CF833291
:1014300069F48F89988DB0E0A0E0809300019093CB
:101440000101A0930201B0930301ADCE803269F493
:101450008091E80082FFFCCF67E084E091E00E9489
:1014600066038BEF8093E8009ECE823209F09BCE1C
:101470008F8980930B01EEEFFFE7859194918B3F6D
:101480009C4D51F1E0E0F8E080910401909105015C
:10149000A0910601B0910701803B9440A105B105E0
:1014A000F1F480910B0180FD1AC0EE3F8AE0F8074D
:1014B00089F587E797E79183808380916000809327
:1014C000100488E19BE00FB6F894A8958093600023
:1014D0000FBE9093600067CEEEEFFAE0D5CF80812B
:1014E00091818737974709F05ECEA895809160007B
:1014F0008861809360008091100480936000EE3FCB
:101500002AE0F20789F08091FE0A9091FF0A918308
:10151000808349CE808191818737980751F29093DB
:10152000FF0A8093FE0AC5CF1092FF0A1092FE0AAE
:101530003ACE0E944001DC0112960D911C910115DA
:10154000110509F4E8CED801ED91FC910190F081EC
:10155000E02DBE016B5E7F4FC8010995811123CE3E
:10156000F80100851185EBCF181619060CF41BCE77
:10157000D2CEF1E0FF12BECE62EF70E004CFCF9387
:10158000DF93CDB7DEB72C970FB6F894DEBF0FBE52
:10159000CDBF789484B5826084BD84B5816084BDFC
:1015A00085B5826085BD85B5816085BD80916E0001
:1015B000816080936E001092810080918100826032
:1015C000809381008091810081608093810080916F
:1015D0008000816080938000809191008260809380
:1015E00091008091910081608093910080919000A2
:1015F0008160809390008091C10084608093C100DD
:101600008091C10082608093C1008091C10081609F
:101610008093C1008091C30081608093C30080915A
:10162000C00082608093C0008091C200816080937E
:10163000C20080917A00846080937A0080917A0061
:10164000826080937A0080917A00816080937A0032
:1016500080917A00806880937A00109266041092DC
:101660001304109212048091D70081608093D700F8
:1016700080EA8093D80089B5806189BD89B5826090
:1016800089BD09B400FEFDCF61E070E080E090E02C
:101690000E946F028091D8008F7C80618093D80077
:1016A0008091E000807F8093E0008091E1008E7E59
:1016B0008093E1008DE08093E200559A209A8FEFAD
:1016C0009FEF909374048093730462E085E00E941E
:1016D000F70161E086E00E94F70160E086E00E9489
:1016E000C90161E087E00E94F70161E088E00E94A3
:1016F000F70161E089E00E94F70161E08AE00E9461
:10170000F70161E08BE00E94F70161E08CE00E944C
:10171000F70160E087E00E94C90160E088E00E9474
:10172000C90160E089E00E94C90160E08AE00E948E
:10173000C90160E08BE00E94C90160E08CE00E947A
:10174000C90160E087E00E94C9016AE070E080E0C2
:1017500090E00E946F0270E060E090E080E00E9404
:10176000AB0581EE94E09093130180931201809178
:1017700069008F73806480936900EB9A8DEA94E02E
:1017800090930F0180930E0180916900837F8460A4
:1017900080936900E99A89E794E090930D01809322
:1017A0000C01809169008C7F816080936900E89AC8
:1017B00080E691E00E946D058CE791E00E946D0546
:1017C00090E080E00E942613898381E090E00E94EF
:1017D00026138A8382E090E00E9426138B8383E0A5
:1017E00090E00E9426138C8389819A81AB81BC8111
:1017F0008B349E44A144B44509F0B7C184E090E025
:101800000E94261380931A0185E090E00E9426131F
:1018100080931B0186E090E00E94261380931C01B8
:1018200087E090E00E94261380931D0162E271E040
:1018300088E090E00E94BD0668E271E08AE090E0F6
:101840000E94BD0660E271E08CE090E00E94BD065F
:101850001092440480914404882309F4A8C184EBC5
:1018600091E00E946D0580E090E0A0E8BFE38093E6
:101870001A0190931B01A0931C01B0931D010E94BB
:10188000A10200914C0410914D0420914E0430911E
:101890004F04601B710B820B930B64317105810542
:1018A000910508F45AC10E94A10260934C04709300
:1018B0004D0480934E0490934F0485E00E94A00154
:1018C00020913F040091450410914604892B09F0B2
:1018D000E0C1211179C6FF24F394F0923F040E94E5
:1018E000A10260933B0470933C0480933D04909369
:1018F0003E040230110509F067C6809126019091DF
:1019000027012091240130912501AC01421B530B8A
:10191000443F51400CF05FC18EE292E00E946D05A1
:101920001092460410924504F092440480914B04B6
:10193000811118C020912A0130912B01809128013A
:1019400090912901281B390B121613060CF047C27F
:1019500020912A0130912B01281B390B22333105AC
:101960000CF446C282E10E9428026C0190934A0462
:101970008093490486E10E9428024C019093480418
:1019800080934704809145049091460481309105ED
:1019900009F03AC20E94A1024090310450903204F2
:1019A00060903304709034046419750986099709AE
:1019B000693E73408105910508F4AAC00D2C000C06
:1019C000EE08FF0880912B0490912C04A0912D0427
:1019D000B0912E04C80ED91EEA1EFB1EC0922B0425
:1019E000D0922C04E0922D04F0922E04092C000CCD
:1019F000AA08BB088091270490912804A09129048B
:101A0000B0912A04880E991EAA1EBB1E809227043C
:101A100090922804A0922904B0922A0400912F04E5
:101A2000109130040F5F1F4F1093300400932F0468
:101A30000E94A102641975098609970969387341E2
:101A40008105910508F464C0B801110F880B990B4A
:101A50000E94B3142B013C01C501B4010E94B314D0
:101A6000A30192010E9409144B015C0120E030E0C7
:101A7000A9010E9463151816A4F4C701B6010E94BB
:101A8000B314A30192010E940914A50194010E94BC
:101A9000091460931A0170931B0180931C019093A9
:101AA0001D0170E060E090E080E00E94AB058AE1FB
:101AB00093E00E94660560911A0170911B0180916C
:101AC0001C0190911D0143E00E94E10589E491E031
:101AD0000E94150582E090E09093460480934504AF
:101AE000E4ECF9E0F0932501E093240124EF31E0E8
:101AF00030932701209326018CED95E090931F01F0
:101B000080931E01109226048EE393E00E946D05DF
:101B10000E94A102009140041091410420914204CE
:101B200030914304601B710B820B930B643F714037
:101B30008105910590F00E94A1026093400470938A
:101B40004104809342049093430480914B0481119B
:101B5000D6C48FE893E00E946D0580E090E0892B69
:101B600009F48DCE0E9400008ACE81E08093440467
:101B700080E090E0A0E8BFE380931A0190931B01FE
:101B8000A0931C01B0931D0188EE93E09093230174
:101B9000809322018CED95E0909329018093280198
:101BA00080ED97E0909321018093200153CE81E056
:101BB00092E00E94660560911A0170911B0180916C
:101BC0001C0190911D0143E00E94E10589E491E030
:101BD0000E94150554CE3093230120932201909347
:101BE00021018093200180911E0190911F0190930B
:101BF00029018093280105E411E0F12CE12CFA82FF
:101C0000E982F80161918F01CE0101960E94D1060F
:101C1000FFEFEF1AFF0A24E0E216F10481F70AE170
:101C200011E0B4E0EB2EF12CFA82E982F801619127
:101C30008F01CE0101960E94D106FFEFEF1AFF0A35
:101C400028E0E216F10481F762E271E088E090E0BA
:101C50000E94EA0668E271E08AE090E00E94EA06EB
:101C600060E271E08CE090E00E94EA068EE592E08E
:101C70000E946D051092460410924504109244048F
:101C800060E086E00E94C9018FE792E00E946D0546
:101C90004DCEF0904B04211110923F0480914504E9
:101CA000909146048130910509F063C00E94A10221
:101CB0000091360410913704209138043091390492
:101CC000601B710B820B930B6D37710581059105BC
:101CD00008F42CCE0E94A10260933604709337045E
:101CE00080933804909339046091350481E068272B
:101CF0006093350486E00E94C90118CE81E090E02F
:101D0000909346048093450410923A040E94A102E5
:101D100060933104709332048093330490933404BD
:101D20001092300410922F0410922B0410922C0465
:101D300010922D0410922E04109227041092280461
:101D40001092290410922A0460E470E080E490E08C
:101D50000E94AB0560E08AE00E94C90160E08BE070
:101D60000E94C9018FEE92E00E946D05FF24F3945A
:101D700095CF61E0029709F4BDCF80914404882398
:101D8000A9F00E94A102009136041091370420911D
:101D9000380430913904601B710B820B930B6A3F3E
:101DA00071058105910508F4C1CD94CFF11015C0DE
:101DB0000E94A1020091360410913704209138044A
:101DC00030913904601B710B820B930B643F71409F
:101DD0008105910508F4AACD7DCF60E08BCF2091DD
:101DE0002A0130912B01821B930BC2970CF0BACDC4
:101DF00061E08CE00E94C90181E080934B048AE09D
:101E000093E00E946D05AECD8230910509F059C076
:101E10000091180110911901E0902A01F0902B0116
:101E2000C801E016F1060CF4C7012091240130919D
:101E30002501821793070CF49C0130932501209310
:101E40002401A8010E151F050CF4A701809126019D
:101E500090912701841795070CF4CA0190932701EC
:101E600080932601820F931F97FD01969595879584
:101E70009801281B390B2F5C3F4F23363105F0F4B6
:101E8000A701481B590BCA01C19683369105B0F4CE
:101E90008091260481113CCE81E0809326040E942B
:101EA000A1020E0D1F1D17FF02C00F5F1F4F1595DA
:101EB000079510931F0100931E012ACE109226044D
:101EC00027CE892B09F024CE80914404811120CEA5
:101ED00080914B04882309F41BCEE0902001F09000
:101EE000210147010F2C000CAA08BB08C090220159
:101EF000D090230126010D2C000C660877088091F4
:101F00002A0190912B018C159D050CF007C22091A0
:101F100022013091230184189508A608B708032EE2
:101F2000000C440B550B2419350946095709A4E642
:101F3000B0E00E945B13A50194010E943C1389014B
:101F400080911801909119018C159D050CF0F7C135
:101F50002091220130912301032E000C440B550BDC
:101F60002419350946095709A8ECB0E00E945B1313
:101F7000A50194010E943C1329013A0164E6461A26
:101F8000510861087108F201A0901601B090170184
:101F9000809028019090290131E08A149B040CF074
:101FA00030E088E893E1B7016C197D090E94DA15E9
:101FB0000617170714F410E000E0C201F7FF04C091
:101FC0008827992784199509861797070CF4F7C174
:101FD0001E161F060CF0C4C1CF0165E070E00E9420
:101FE000DA15C801861B970B97FF02C090E080E0CE
:101FF000E734F1050CF4E1C1053111050CF4DDC144
:1020000051E08A149B040CF450E0C80117FD0196BE
:1020100095958795FB01E81BF90BCF01F39714F019
:1020200082E390E0E02F412F8017910714F4E82F0E
:10203000492F232F352FC80150912504351709F456
:10204000C3C16091230470912404663071050CF4BF
:10205000BBC1109222041092210430912004321747
:1020600009F4C4C140911E0450911F04463051052B
:102070000CF4BCC110921D0410921C042601DD0C4E
:1020800066087708209118013091190130902504D5
:1020900020902004A0902104B090220400911C0400
:1020A00010911D04032E000C440B550B2419350907
:1020B00046095709A8ECB0E00E945B139701FF0C9A
:1020C000440B550B24193509460957090E943C1346
:1020D00024563109410951092D5E3F4F2732310500
:1020E00008F0E2C13210E0C15BE0A516B10424F4AF
:1020F0000B3011050CF4D8C1B501BB0C880B990B42
:102100000E94B3146D837E838F839887B801110F6B
:10211000880B990B0E94B31420911A0130911B0176
:1021200040911C0150911D010E94681569877A87B2
:102130008B879C870091490410914A046090470462
:1021400070904804B801660D771D072E000C880BAF
:10215000990B0E94B31420E030E040E05FE30E945E
:1021600068154B015C01B801110F880B990B0E9497
:10217000B3149B01AC01C501B4010E9497136B011C
:102180007C01B301770C880B990B0E94B3149B015F
:10219000AC01C501B4010E9497134B015C0120E022
:1021A00030E0A901C701B6010E946315260137017D
:1021B000181624F077FA709477F8709420E030E0E5
:1021C000A901C501B4010E946315A5019401181667
:1021D0000CF05058C301B2010E94631518160CF0A0
:1021E00019C1BC2DAD2DFE2DEF2D2DEC3CEC4CE49A
:1021F0005DE36B2F7A2F8F2F9E2F0E946815209101
:1022000018043091190440911A0450911B040E9443
:1022100098132B013C0120E030E048EC52EC0E9486
:10222000041487FDFCC020E030E048EC52E4C30118
:10223000B2010E946315181634F4412C512C98EC0D
:10224000692E92E4792E40921804509219046092FB
:102250001A0470921B04A5019401C501B4010E94E7
:102260009813A30192010E94981329853A854B8502
:102270005C850E9498134B015C01A7019601C70180
:10228000B6010E949813A30192010E9498132D8118
:102290003E814F8158850E9498130E947B149B01B8
:1022A000AC01A9E9B0E00E945B1330E020E06D3999
:1022B000EFEF7E078E079E0774F029E930E0683261
:1022C000FCE37F078105910534F424E630E040E02B
:1022D00050E00E943C133093240420932304C50152
:1022E000B4010E947B149B01AC01A9E9B0E00E94FB
:1022F0005B136D392FEF7207820792070CF496C0BB
:1023000068323CE37307810591050CF0CAC024E6EE
:1023100030E040E050E00E943C138AC080912A01E6
:1023200090912B01E816F9062CF4209120013091B0
:102330002101F1CD20912A0130912B01ECCD80912A
:10234000180190911901E816F9062CF4209120014A
:102350003091210101CE2091180130911901FCCD5D
:10236000309769F1882799278419950965E070E00D
:102370000E94DA15C801861B970B97FF02C090E0F8
:1023800080E0EA3BFF4FF4F405311105DCF021E079
:102390008A149B040CF420E0C80117FD0196959562
:1023A0008795AB01481B590BCA014333510514F003
:1023B00082E390E0E02F412F3FCE532F33CE232FE7
:1023C000C801F8CF232FF6CF309325046E2F742F3A
:1023D0006536710514F064E670E077FF02C070E0C6
:1023E00060E0709322046093210437CE2093200490
:1023F0000536110514F004E610E0801791070CF47F
:102400008C0117FF02C010E000E010931D04009340
:102410001C0434CEB82DA92DFA2DEB2DE6CE412C7F
:10242000512C88EC682E82EC782E0DCF30E020E025
:1024300030931F0420931E04009123041091240460
:102440000A39110514F009E910E017FF02C010E085
:1024500000E01093150400931404B8018091160451
:10246000909117040E94AB0580911E0490911F0467
:102470008A39910514F089E990E097FF02C090E055
:1024800080E09093170480931604B8010E94AB0576
:10249000632D8AE00E94C901622D8BE00E94C90170
:1024A00037CB29E930E0C4CF2DEC3CEC4CE45FE3C2
:1024B000609118047091190480911A0490911B0482
:1024C0000E946815609318047093190480931A048D
:1024D00090931B0429E930E0D5010E94F41524E60D
:1024E00030E040E050E00E943C13309324042093FD
:1024F000230429E930E0D8010E94F41508CF809127
:10250000450490914604892B09F027CB809144041F
:10251000882319F08FEB93E01ECB8AED93E00E94A5
:10252000660580912A0190912B010E947B0580EE27
:1025300093E00E94660580911801909119010E9414
:102540007B0584EE93E00E946605809121049091C2
:1025500022040E947B058FEE93E00E946605809125
:102560001C0490911D040E947B0583EF93E00E9460
:10257000660580912304909124040E947B0580913C
:1025800025048823D9F088E591E00E9466058FEE46
:1025900093E00E94660580911E0490911F040E94A2
:1025A0007B0580912004882361F088E591E00E94FA
:1025B000660589E491E00E941505CFCA8CE591E09B
:1025C000E4CF8CE591E0F3CFF0904B040E94A102A0
:1025D00080903B0490903C04A0903D04B0903E0459
:1025E000681979098A099B09613D77408105910540
:1025F00008F454CB80913A04811150CB012B09F09F
:102600004DCB81E080933A0485E992E00E946D050C
:10261000F11074CB8EEA92E00E946D0510923A049C
:102620003DCBE7E6F4E01382128288EE93E0A0E06F
:10263000B0E084839583A683B78380E391E09183A0
:1026400080838FEF9FEF958784870895F999FECF58
:1026500092BD81BDF89A992780B50895262FF999E2
:10266000FECF1FBA92BD81BD20BD0FB6F894FA9A75
:10267000F99A0FBE01960895052E97FB1EF400945B
:102680000E94531357FD07D00E94661307FC03D026
:102690004EF40C94531350954095309521953F4F2F
:1026A0004F4F5F4F089590958095709561957F4F3E
:1026B0008F4F9F4F08950E948813A59F900DB49F40
:1026C000900DA49F800D911D11240895A1E21A2E52
:1026D000AA1BBB1BFD010DC0AA1FBB1FEE1FFF1FC6
:1026E000A217B307E407F50720F0A21BB30BE40B16
:1026F000F50B661F771F881F991F1A9469F760955D
:102700007095809590959B01AC01BD01CF01089516
:10271000A29FB001B39FC001A39F700D811D112422
:10272000911DB29F700D811D1124911D0895505867
:10273000BB27AA270E94AF130C9429150E941B15D2
:1027400038F00E94221520F039F49F3F19F426F446
:102750000C9418150EF4E095E7FB0C941215E92F74
:102760000E943A1558F3BA17620773078407950752
:1027700020F079F4A6F50C945C150EF4E0950B2E80
:10278000BA2FA02D0B01B90190010C01CA01A001C3
:102790001124FF27591B99F0593F50F4503E68F11E
:1027A0001A16F040A22F232F342F4427585FF3CF5F
:1027B000469537952795A795F0405395C9F77EF430
:1027C0001F16BA0B620B730B840BBAF09150A1F079
:1027D000FF0FBB1F661F771F881FC2F70EC0BA0FFF
:1027E000621F731F841F48F4879577956795B79587
:1027F000F7959E3F08F0B0CF9395880F08F0992782
:10280000EE0F9795879508950E94EE1408F481E0E5
:1028100008950E941D140C9429150E94221558F049
:102820000E941B1540F029F45F3F29F00C9412150B
:1028300051110C945D150C9418150E943A1568F30B
:102840009923B1F3552391F3951B550BBB27AA2769
:1028500062177307840738F09F5F5F4F220F331FA3
:10286000441FAA1FA9F335D00E2E3AF0E0E832D06B
:1028700091505040E695001CCAF72BD0FE2F29D06E
:10288000660F771F881FBB1F261737074807AB0740
:10289000B0E809F0BB0B802DBF01FF2793585F4FB5
:1028A0003AF09E3F510578F00C9412150C945D158A
:1028B0005F3FE4F3983ED4F3869577956795B79597
:1028C000F7959F5FC9F7880F911D9695879597F9A2
:1028D0000895E1E0660F771F881FBB1F621773071B
:1028E0008407BA0720F0621B730B840BBA0BEE1F30
:1028F00088F7E09508950E9482146894B1110C94B1
:102900005D1508950E94421588F09F5798F0B92FE1
:102910009927B751B0F0E1F0660F771F881F991F14
:102920001AF0BA95C9F714C0B13091F00E945C1545
:10293000B1E008950C945C15672F782F8827B85F55
:1029400039F0B93FCCF3869577956795B395D9F76C
:102950003EF490958095709561957F4F8F4F9F4F76
:102960000895E89409C097FB3EF490958095709582
:1029700061957F4F8F4F9F4F9923A9F0F92F96E9CB
:10298000BB279395F695879577956795B795F11140
:10299000F8CFFAF4BB0F11F460FF1BC06F5F7F4FDD
:1029A0008F4F9F4F16C0882311F096E911C07723EF
:1029B00021F09EE8872F762F05C0662371F096E8F8
:1029C000862F70E060E02AF09A95660F771F881FC7
:1029D000DAF7880F9695879597F90895990F00086B
:1029E000550FAA0BE0E8FEEF16161706E807F907E1
:1029F000C0F012161306E407F50798F0621B730B7C
:102A0000840B950B39F40A2661F0232B242B252BFC
:102A100021F408950A2609F4A140A6958FEF811D9F
:102A2000811D089597F99F6780E870E060E0089540
:102A30009FEF80EC089500240A94161617061806D6
:102A40000906089500240A941216130614060506B2
:102A50000895092E0394000C11F4882352F0BB0F43
:102A600040F4BF2B11F460FF04C06F5F7F4F8F4FA6
:102A70009F4F089557FD9058440F551F59F05F3FE1
:102A800071F04795880F97FB991F61F09F3F79F090
:102A900087950895121613061406551FF2CF469512
:102AA000F1DF08C0161617061806991FF1CF869594
:102AB0007105610508940895E894BB276627772778
:102AC000CB0197F908950E94EE1408F48FEF089552
:102AD0000E947B150C9429150E941B1538F00E944A
:102AE000221520F0952311F00C9412150C94181552
:102AF00011240C945D150E943A1570F3959FC1F353
:102B0000950F50E0551F629FF001729FBB27F00D9B
:102B1000B11D639FAA27F00DB11DAA1F649F6627F0
:102B2000B00DA11D661F829F2227B00DA11D621F3F
:102B3000739FB00DA11D621F839FA00D611D221FF9
:102B4000749F3327A00D611D231F849F600D211DDD
:102B5000822F762F6A2F11249F5750409AF0F1F060
:102B600088234AF0EE0FFF1FBB1F661F771F881FC9
:102B700091505040A9F79E3F510580F00C941215DA
:102B80000C945D155F3FE4F3983ED4F386957795FA
:102B90006795B795F795E7959F5FC1F7FE2B880F6F
:102BA000911D9695879597F908950E94EE14880BCC
:102BB000990B089597FB072E16F4009407D077FD24
:102BC00009D00E94FB1507FC05D03EF49095819535
:102BD0009F4F0895709561957F4F0895EE0FFF1FE9
:102BE0000590F491E02D09940E948813B7FF089591
:102BF000821B930B0895AA1BBB1B51E107C0AA1FA0
:102C0000BB1FA617B70710F0A61BB70B881F991F8D
:102C10005A95A9F780959095BC01CD010895F89437
:022C2000FFCFE4
:102C2200FFFFFFFF00E1000000000000AD02AD0267
:102C3200AD02AD02AD02DC05DC050000803FDC0523
:102C4200D007E803C409F401DC05DC05000000003C
:102C5200F803730319040E045F041D043B0400C14E
:102C620080810000004B4E41540D0A006E616E00DF
:102C7200696E66006F766600285229002846290090
:102C820052432054616E6B20436F6E74726F6C20DE
:102C9200496E697469616C697A6564005761697427
:102CA200696E6720666F72207468726F74746C65E7
:102CB20020746F2062652063656E7465726564209E
:102CC200746F20656E61626C65206D6F746F7273D4
:102CD2002E2E2E004E6F2076616C69642063616C2B
:102CE2006962726174696F6E20646174612E205032
:102CF2007265737320616E6420686F6C6420627504
:102D020074746F6E20666F722032207365636F6E0B
:102D1200647320746F2063616C6962726174652EE2
:102D2200004C6F616465642063616C6962726174F6
:102D3200696F6E20646174612E204D6F746F722012
:102D4200737065656420726174696F3A2000455240
:102D5200524F523A2052432072616E676520746F5F
:102D62006F20736D616C6C202D2063616C696272DF
:102D72006174696F6E206661696C65642E004361DF
:102D82006C6962726174696F6E2064617461207330
:102D92006176656420746F20454550524F4D004363
:102DA200616C6962726174696F6E20636F6D706CC1
:102DB200657465210043616C6962726174696F6E4A
:102DC200207265717565737465642E2E2E004361E1
:102DD2006E6E6F742063616C6962726174652E201D
:102DE200506C656173652063656E746572207468EA
:102DF200726F74746C6520746F20656E61626C65AD
:102E0200206D6F746F72732066697273742E004D39
:102E12006F746F722063616C6962726174696F6E44
:102E220020737461727465642E004D6F746F7273D7
:102E320020656E61626C656421004D6F746F722053
:102E420063616C6962726174696F6E20636F6D7029
:102E52006C6574652E20526174696F3A200052438A
:102E62002063616C6962726174696F6E2073746150
:102E7200727465642E204D6F766520737469636B7E
:102E82007320746F2066756C6C2072616E67652C9E
:102E9200207468656E2063656E74657220616E646D
:102EA20020707265737320627574746F6E2E005792
:102EB200616974696E6720666F72207468726F74DC
:102EC200746C652063656E74657220746F20656E24
:102ED20061626C65206D6F746F72732E2E2E0057B7
:102EE200616974696E6720666F722063616C6962E2
:102EF200726174696F6E2E2E2E00524320543A0076
:102F020020533A00207C2042617365204C3A002015
:102F1200523A00207C2046696E616C204C3A0000D7
:00000001FF
